S00E00004755494170702E7372656310
S214000000B07505200D630100B55D010009630100B0
S2140000100963010009630100096301000000000094
S214000020000000000000000000000000096301005E
S2140000300963010000000000650F030019100300AB
S214000040895A0100E19B000079360100C93601009B
S21400005019370100F1200100291601001D040100D6
S21400006075FF0000E5020100510101001D040100BA
S21400007075FF0000E502010051010100890D010035
S214000080C10D010039EE0000FDEC0000C1ED0000DE
S21400009019EC0000FFFFFFFFFFFFFFFFFFFFFFFF62
S2140000A0FFFFFFFFFFFFFFFFFFFFFFFFFFFFFFFF5B
S2140000B0FFFFFFFFFFFFFFFFFFFFFFFFFFFFFFFF4B
S2140000C0FFFFFFFFFFFFFFFFFFFFFFFFFFFFFFFF3B
S2140000D0FFFFFFFFFFFFFFFFFFFFFFFFFFFFFFFF2B
S214000400FFFFFFBFFFF9FFFFFFFFFFFFFFFFFFFF3D
S214000410FFFFFFFFFFFFFFFFFFFFFFFFFFFFFFFFE7
S214000420FFFFFFFFFFFFFFFFFFFFFFFFFFFFFFFFD7
S214000430FFFFFFFFFFFFFFFFFFFFFFFFFFFFFFFFC7
S214000440FFFFFFFFFFFFFFFFFFFFFFFFFFFFFFFFB7
S214000450FFFFFFFFFFFFFFFFFFFFFFFFFFFFFFFFA7
S214000460FFFFFFFFFFFFFFFFFFFFFFFFFFFFFFFF97
S214000470FFFFFFFFFFFFFFFFFFFFFFFFFFFFFFFF87
S214000480FFFFFFFFFFFFFFFFFFFFFFFFFFFFFFFF77
S214000490FFFFFFFFFFFFFFFFFFFFFFFFFFFFFFFF67
S2140004A0FFFFFFFFFFFFFFFFFFFFFFFFFFFFFFFF57
S2140004B0FFFFFFFFFFFFFFFFFFFFFFFFFFFFFFFF47
S2140004C0FFFFFFFFFFFFFFFFFFFFFFFFFFFFFFFF37
S2140004D0FFFFFFFFFFFFFFFFFFFFFFFFFFFFFFFF27
S2140004E0FFFFFFFFFFFFFFFFFFFFFFFFFFFFFFFF17
S2140004F0FFFFFFFFFFFFFFFFFFFFFFFFFFFFFFFF07
S214000500E860042040002F10A4600420FD01440091
S214000510A8600420FA014300AC600420FB014308F5
S214000520B0600420FC014310EC600420B6002B30C1
S214000530F06004200A000648F460042066001500F7
S214000540F860042063001508FC60042065001510A0
S214000550006104206400151804610420700815006A
S214000560086104206D0815080C6104206F0815103A
S214000570106104206E081518B4600420FF014500C1
S214000580B8600420FE0145081461042077011408B1
S21400059018610420740114101C61042076011420D4
S2140005A020610420750114282000000020000100AE
S2140005B02F0000002F0001000C00010011000000B9
S2140005C0300000003000010024000000240001007C
S2140005D02400020024000300240004002400050078
S2140005E01300000017000000230000002100000098
S2140005F021000100070000000700010007000200BC
S21400060007000300070004000700050007000600B7
S2140006100700070012000000440000000800000069
S2140006200B000000410000004000000040000100F8
S21400063004000000430000002B0000002B000A000E
S2140006402B000B002B000C002B000D002B000100D4
S2140006502B0002002B0003002B0004002B000500DB
S2140006602B0006002B0007002B0008002B000900BB
S2140006700600000006000A0006000B0006000C003C
S21400068006000D0006000E0006000F000600010022
S214000690060002000600030006000400060005002F
S2140006A0060006000600070006000800060009000F
S2140006B015000000150001001500020031000000C2
S2140006C02A000000450000001000000003010000A2
S2140006D003000000030001000F0000000D000000F2
S2140006E02D000000420000002C0000002C0001003D
S2140006F02C0002002C00030032000000280000003E
S214000700180000001400000014000100140002008D
S2140007101400030014000400140005001400060072
S214000720140007001400080014000900340000003C
S214000730340001001600000016000100350000001D
S21400074036000000360001002200000033000000E2
S214000750330100002900000010B5054C237833B99A
S214000760044B13B10448AFF300800123237010BD7F
S2140007700016FE1F00000000BC94030008B5034BE3
S2140007801BB103490348AFF3008008BD000000001A
S2140007900416FE1FBC9403002DE9F0433A4AD0F835
S2140007A03431146A1E689F6883B000218046B0F812
S2140007B03001A04702202FF091FF3B693046984752
S2140007C00121B8F83001A04702AD02202FF086FFC5
S2140007D02E4B45F8043D4FF00A09FC68002304221E
S2140007E029463046A04748B1B9F10109F5D13B6921
S2140007F030469847642003B0BDE8F0834CF204030B
S214000800ADF804304FF00A09FC680023022229469E
S2140008103046A04718B1B9F10109F5D1E7E740F62F
S2140008202243ADF804304FF00A09FC680023022288
S21400083029463046A04718B1B9F10109F5D1D6E7E7
S2140008400B23ADF804304FF00A09FC68002302229F
S21400085029463046A04718B1B9F10109F5D1C6E7D7
S214000860E0238DF804304FF00A09FC6800230122CB
S21400087029463046A04718B1B9F10109F5D1B6E7C7
S214000880052388F81C30B6E7D42303000074270439
S2140008902DE9F047D0F83821D0F8343189469168F0
S2140008A01D689E6882B0804610684A684FF0FF3127
S2140008B0904710B102B0BDE8F0870DF1080A632337
S2140008C00AF8053D0323C9F8040089F808300A240D
S2140008D001231A465146F7682846B84701220346C0
S2140008E0514618B9B7682846B84740B1013CEFD121
S2140008F0336928469847642002B0BDE8F0879DF823
S21400090003305B0702D5042389F808300A2704223F
S214000910B46800230DEB02012846A04710B1013F42
S214000920F5D1E5E79DF804309DF806609DF8055082
S2140009309DF80740B8F80410B8F8062003F00F0337
S21400094006F00F0645EA032544EA0624234B01FB7E
S21400095005F102FB04F2A3FB0154A3FB025398F833
S2140009601C50D21A091B03EB520304EB51016A1EFA
S21400097041F3CF2143F3CF23012AA9F80410A9F8A5
S21400098006300FD999F80840032D22460FD088F874
S2140009901C2099F80820042A17D0A8F81810A8F8E0
S2140009A01A3087E7032288F81C2099F80840032CA1
S2140009B02246ECD1D9F80420D8F81840944214BF47
S2140009C00222012289F80820E1E7B8F91820B8F9D0
S2140009D01A30A9F80630A9F804206BE701011000C8
S2140009E030B4039CE50603D5D0F880502D0221D5FF
S2140009F0A50603D5D0F88050AD021BD524F03005EF
S214000A000D3D022D0ED9406AC0F87031029BC0F829
S214000A107841C0F86811C0F86C21C0F8743130BC59
S214000A2000207047D0F8805015F4803FEBD1EDB22F
S214000A30092DE8D8092380F8C63130BC184670471F
S214000A402DE9F04F91B0446ABDF96C60056B0896CD
S214000A500746BDF97060D4F878010996BDF9746050
S214000A600A9688469B46BDF97860D4F86C110B96BA
S214000A7000F010031F9E0793D4F87031BDF868A0ED
S214000A809146B1F5006F0BEB0802A8BF26F00806EA
S214000A909A42C4BFA3EB0B030D93D4F87431D8BFAE
S214000AA0CDF834800AEB09029A42C6BFA3EB0A03CC
S214000AB00E93CDF83890E37D1DB116F4807200F0E9
S214000AC0F5800C930321384601F062FA00221146A5
S214000AD0384606F03DFF079B002B00F08480D4F8D4
S214000AE068310D9306F00F01384607F0B5FAD4F8D2
S214000AF07811D4F87031D4F86C210191D4F87411BF
S214000B00009138460D9907F039F9B30600F1B78021
S214000B104FF07F43F006194606F0400240F1BE80D3
S214000B20A068002A40F0BE80034394F80E21BDF86A
S214000B302000C4F8581142F005021028C4F85C31B1
S214000B4084F80E2140F20D81099A102A4FEA0851C6
S214000B50B1FBF0FE4FEA6E0340F30B814FEA0950FB
S214000B60B0FBF2F04210B10544BFC3EB0843CEF130
S214000B70000E710544BFC2EB09424042710748BFF0
S214000B80A3F500433107079948BFA2F5004219B103
S214000B9003EB0B4302EB0A42DDF82C90DDF82880CD
S214000BA004904FF0000CCDE9002E41464A46CDE9B0
S214000BB002CC384606F0AAFE0999019108990091E0
S214000BC04B4642462146384600F04EFD1DB116F40F
S214000BD0807000F0D2800C99384601F0D9F90020D8
S214000BE011B0BDE8F08FD4F8783123F03003422BF3
S214000BF000F25781DFE813F0270143014C0143015F
S214000C0043011D014C014301430127012701270130
S214000C1027012701270127015501550155015501D7
S214000C20550155015501550155015501550155010F
S214000C3055015501550155015501550155015501FF
S214000C4055015501550155015501550155015501EF
S214000C5055015501550155015501550155015501DF
S214000C6055015501550155015501550155015501CF
S214000C7055015501550155014C014301430106F04C
S214000C808003002B0BBF4FF07F43002300214FF063
S214000C907F41F00606F040023FF542AF002A00F022
S214000CA0C580A068E268014313433EE72B7094F8C2
S214000CB00E31AB7094F8D5306B70D4F8FC30D4F8A5
S214000CC000116B60D4F82C31C5E9021394F8E930B2
S214000CD085F82930D4F83811D4F83431C5E904132E
S214000CE094F8E83085F82830D4E93B13A961D4F8A5
S214000CF0F410EB61D4F8F830C5E9081394F8EA303C
S214000D0085F82A3094F8EB3085F82B30D4F83C314F
S214000D10EB62D4F84011D4F824312963D4F8581182
S214000D206B63D4F85C31A963B4F8A810EB63B4F82D
S214000D30AA30A5F85410D4F8A010A5F85630D4F868
S214000D40A430E964D4F898102B65D4F89C30696414
S214000D50D4F8B010AB64D4F8B4300C92E9652B66C6
S214000D60B0E6099A102A4FF000034FF4803E3FF792
S214000D70F5AE00224FF48030F5E62B78E375AB78BD
S214000D8084F80E316B7884F8D530D5E90112EB681B
S214000D90C4F82C31C4F8FC10C4F8002195F82930AA
S214000DA084F8E930D5E90423C4F83821C4F834318E
S214000DB095F8283084F8E830D5E906312A6AC4F870
S214000DC0EC306B6AC4F8F830C4E93C1295F82A3067
S214000DD084F8EA3095F82B3084F8EB30D5E90B121E
S214000DE06B6BC4F83C11A96BC4F84021EA6BC4F8DD
S214000DF02431B5F85430C4F85811B5F85610C4F874
S214000E005C21EA6CA4F8A8302B6D6E6CA4F8AA10CE
S214000E10C4F8A020A96CC4F8A430D5E91723C4E907
S214000E202661C4E92C2311B0BDE8F08F63F07F4340
S214000E307BE6D7F880309A023AD51F4BC4F82C319F
S214000E40012384F8E930D4F86C31D4F8682103FB28
S214000E500AB31A4406F00F0138460F9207F0FCF862
S214000E600F9AD4F86C01D4F87831019311460246F3
S214000E700E9800900D9B384606F080FF45E6D4F8A5
S214000E806C31D4F8682103FB0AB302EB4302E1E7B6
S214000E90D4F86C31D4F8682103FB0AB302EB830262
S214000EA0D8E706F00F01384607F0D6F80022D8E754
S214000EB0092087F8C60193E6100004002DE9F043E8
S214000EC085B09146BDF930201F46A9F11008BDF93E
S214000ED034309044A7F110061E441FFA88F8B6B2C4
S214000EE008F10F0222F00F0206F10F0329F00F049B
S214000EF00D4623F00F03ADF80C2002A927F00F02D1
S214000F00ADF80840ADF80E30ADF80A20044607F0FC
S214000F10F7FF10B905B0BDE8F0832946204605F076
S214000F207BFF95F8D53099070FFA88F836B240F16E
S214000F30298149EA0802DB0702F00F0200F1588116
S214000F4047EA060101F00F01002A00F0FE82BDF913
S214000F500820D4F8B801D4F8BC31A2EB09094FEA4E
S214000F60093909F5803200F1080C013B002900F030
S214000F706B820421002BC4F8B8C1C0E90012C4F883
S214000F80BC3107DCD4F8C03120469847D4F8B8C145
S214000F90D4F8BC31013B0CF108020A204FF4803132
S214000FA0002BC4F8B821CCE90001C4F8BC3107DC3A
S214000FB0D4F8C03120469847D4F8B821D4F8BC31CC
S214000FC0013B002102F108004FF0100C8B42C4F8E0
S214000FD0B801C2E900C1C4F8BC3107DCD4F8C0319E
S214000FE020469847D4F8B801D4F8BC31BDF908209B
S214000FF0A8EB0202013B120302F5803200F1080161
S2140010004FF0050C002BC4F8B811C0E900C2C4F8B4
S214001010BC3107DCD4F8C03120469847D4F8B81164
S214001020D4F8BC317148013B01F108024FF00B0CBB
S214001030002BC4F8B821C1E900C0C4F8BC3107DCF5
S214001040D4F8C03120469847D4F8B821D4F8BC313B
S214001050013B002102F108004FF0110C8B42C4F84E
S214001060B801C2E900C1C4F8BC3107DCD4F8C0310D
S21400107020469847D4F8B801D4F8BC31BDF90A2008
S214001080D21B013B120302F5803200F1080106274D
S214001090002BC4F8B811C0E90072C4F8BC3107DCF4
S2140010A0D4F8C03120469847D4F8B811D4F8BC31EB
S2140010B0013B002001F108020C278342C4F8B82146
S2140010C0C1E90070C4F8BC3107DCD4F8C031204652
S2140010D09847D4F8B821D4F8BC31013B02F1080097
S2140010E012274FF48031002BC4F8B801C2E9007112
S2140010F0C4F8BC3107DCD4F8C03120469847D4F891
S214001100B801D4F8BC31BDF90A20B21A013B12036B
S21400111002F5803200F108010726002BC4F8B8114A
S214001120C0E90062C4F8BC3107DCD4F8C031204600
S2140011309847D4F8B811D4F8BC31013B002001F12F
S21400114008020D268342C4F8B821C1E90060C4F83D
S214001150BC3107DCD4F8C03120469847D4F8B82113
S214001160D4F8BC312149013B02F10800C4F8B801AB
S214001170002B4FF01300C2E90001C4F8BC3140F365
S2140011805B815DE1DA0733D40023009302AA294687
S214001190204602F009FE0023064602AA29462046FB
S2140011A005F0BAF92946002302AA204606F086FF73
S2140011B0D4F8BC31D4F8B8210021013B02F1080074
S2140011C08B42C4F8B801C2E90016C4F8BC3103DC8F
S2140011D0D4F8C03120469847204602A9002206F0DF
S2140011E0E3F8012005B0BDE8F08300BF0000FFFF74
S2140011F0BDF90820D5F81011D4F8B801D4F8BC31E0
S214001200A2EB090201FB02F201EB1212013B00F114
S214001210080CC4F8B8C1002B42604FF0040202600C
S214001220C4F8BC3109DCD4F8C03120469847D5F85C
S2140012301011D4F8B8C1D4F8BC31013B0CF1080247
S2140012400A20002BC4F8B821CCE90001C4F8BC3150
S21400125007DCD4F8C03120469847D4F8B821D4F833
S214001260BC31013B002102F1080C10208B42C4F86F
S214001270B8C1C2E90001C4F8BC3107DCD4F8C031FB
S21400128020469847D4F8B8C1D4F8BC31BDF9082038
S214001290D5F81011A8EB0202013B01FB02F201EBAC
S2140012A012120CF108004FF0050E002BC4F8B8011E
S2140012B0CCE900E2C4F8BC3109DCD4F8C0312046E1
S2140012C09847D5F81011D4F8B801D4F8BC31013BD2
S2140012D0494200F108024FF00B0C002BC4F8B8216D
S2140012E0C0E900C1C4F8BC3107DCD4F8C0312046E0
S2140012F09847D4F8B821D4F8BC31013B002002F15D
S21400130008014FF0110C8342C4F8B811C2E900C0BE
S214001310C4F8BC3107DCD4F8C03120469847D4F86E
S214001320B811D4F8BC31BDF90A20D5F81001D71B86
S21400133000FB07F7013B00EB171701F10802062038
S214001340002BC4F8B821C1E90007C4F8BC3107DC9B
S214001350D4F8C03120469847D4F8B821D4F8BC3128
S214001360013B002002F108010C278342C4F8B811A3
S214001370C2E90070C4F8BC3107DCD4F8C03120469E
S2140013809847D4F8B811D4F8BC31D5F81021013BF1
S21400139001F108001227002BC4F8B801C1E9007259
S2140013A0C4F8BC3109DCD4F8C03120469847D5F8DB
S2140013B01021D4F8B801D4F8BC31BDF90A10761A59
S2140013C002FB06F6013B02EB161200F108010726A7
S2140013D0002BC4F8B811C0E90062C4F8BC3107DCC1
S2140013E0D4F8C03120469847D4F8B811D4F8BC31A8
S2140013F0013B002001F108020D268342C4F8B82103
S214001400C1E90060C4F8BC3107DCD4F8C03120461E
S2140014109847D4F8B821D4F8BC31D5F81011013B60
S214001420494202F108061320002BC4F8B861C2E94D
S2140014300001C4F8BC3103DCD4F8C031204698471C
S2140014400F2300930423A1E60421002BC4F8B8C19F
S214001450C0E90012C4F8BC3103DCD4F8C031204621
S2140014609847D4F8B821D4F8BC3111460A20013B7D
S2140014700832C4F8B821002B08604FF4803048606A
S214001480C4F8BC3107DCD4F8C03120469847D4F8FD
S214001490B821D4F8BC31013B002011461026083292
S2140014A08342C4F8B821C1E90060C4F8BC3107DC47
S2140014B0D4F8C03120469847D4F8B821D4F8BC31C7
S2140014C0BDF90810A8EB0101013B0903104601F520
S2140014D0803108320526002BC4F8B821C0E9006127
S2140014E0C4F8BC3107DCD4F8C03120469847D4F89D
S2140014F0B821D4F8BC315B48013B11460B260832B4
S214001500002BC4F8B821C1E90060C4F8BC3107DC80
S214001510D4F8C03120469847D4F8B821D4F8BC3166
S21400152002F10801013BC4F8B811002111208B42DA
S214001530C2E90001C4F8BC3103DCD4F8C03120464F
S214001540984703230093022320E600293FF41CAEAD
S214001550BDF90A20D4F8B801D4F8BC31D21B120366
S21400156002F58032013B00F10801C4F8B811002BE7
S21400157042604FF004020260C4F8BC3107DCD4F8C5
S214001580C03120469847D4F8B811D4F8BC31013B96
S214001590002001F108020A278342C4F8B821C1E9F5
S2140015A00070C4F8BC3107DCD4F8C0312046984738
S2140015B0D4F8B821D4F8BC31013B02F1080010275A
S2140015C04FF48031002BC4F8B801C2E90071C4F8AA
S2140015D0BC3107DCD4F8C03120469847D4F8B801AF
S2140015E0D4F8BC31BDF90A20B21A013B120302F549
S2140015F0803200F108010526002BC4F8B811C0E9B6
S2140016000062C4F8BC3107DCD4F8C03120469847E5
S214001610D4F8B811D4F8BC31013B002001F108021F
S2140016200B268342C4F8B821C1E90060C4F8BC3177
S21400163007DCD4F8C03120469847D4F8B821D4F84F
S214001640BC310849013B02F10800C4F8B801002B80
S2140016504FF01100C2E90001C4F8BC317FF76DAF4E
S2140016606FE700BF0000FFFF30B4BDF90840BDF9CA
S2140016700C5034B1002D04DDCDE9024530BCFFF737
S2140016801DBC002030BC704770B582B0BDF9186034
S2140016904BB1002E07DD1C4613460A46816ACDE98B
S2140016A00046FFF70BFC002002B070BDF0B583B01B
S2140016B0BDF9207083B1002F0EDDB0F87050B0F881
S2140016C06EC00C46154404EB0C02C16A00930197E9
S2140016D02BB212B2FFF7F2FB002003B0F0BD00BF42
S2140016E02DE9F04FB0F96C808DB0B8F1000FBDF960
S2140016F058C024DDB8F1100F0D461E460746C16AD5
S2140017000BD091F8D730012B1DD1B1F9D830434515
S21400171019DD91F8D530DB0715D41FFA88F31FFAC8
S2140017208CF909EB430A94B20FFA8AFAA4EB030B7E
S214001730BAF1000F0FFA8BFB3DDC002E6DD10020B6
S2140017400DB0BDE8F08F92B2ADB2083EACF1080C19
S21400175094442E44A2F10804083DC8F34F024FF00B
S214001760040E0023AD1AA41A164462440FFA82FC33
S2140017702DB224B236B2CDF804803846CDE9033314
S214001780CDF808E0CDF800E008AAADF82050ADF896
S2140017902C50ADF82240ADF82640ADF82460ADF8E8
S2140017A02860ADF82AC0ADF82EC004F085FF0020F2
S2140017B00DB0BDE8F08FAAB20792D21ACDE9008A22
S2140017C012B25B463846FFF779FBF96AEEB15B4624
S2140017D02A46CDE900683846FFF770FB079AF96A93
S2140017E0CDF804A0324412B2CDF800805B463846ED
S2140017F04C44FFF763FBF96A24B2CDE90068234640
S2140018002A463846FFF75AFB99E7CDE9008A5B4639
S2140018102A463846FFF752FB91E7CDE900685B465B
S2140018202A4638464C44FFF749FB24B2F96AE4E7F7
S2140018302DE9F04182B00646BDF9205000951C46C1
S2140018400F469046FFF74CFF304605F091FA04F13C
S214001850200000B278B120352DB2002D0BDDA8F1A6
S2140018601003A7F11002B16A009001951BB212B2E4
S2140018703046FFF723FB304605F080FA002002B022
S214001880BDE8F0812DE9F04182B00446BDF9206044
S2140018900BB1002E09DC204605F06AFA204605F05A
S2140018A06DFA002002B0BDE8F08190461D46B0F803
S2140018B06E20B0F870300F4643443A44C16A019631
S2140018C01BB212B20095FFF7F9FA204605F050FA5F
S2140018D0A16A4346CDE900563A462046FFF7EEFA9F
S2140018E0DCE700BF2DE9F04F89B01FFA83F9BDF998
S2140018F04C60BDF9488009F10F05002E0F460446DE
S2140019001FFA82FAADB21FFA88F140F3ED8072102A
S214001910114489B2AAEB010020F00F000AF10F0370
S2140019200D440B44A8EB0202ADF81800A9EB010029
S21400193025F00F0523F00F0320F00F00082AADF85E
S2140019401E50ADF81A00ADF81C303CDDB7F9DA30A1
S214001950002B40DDBDF91820B4F97210D21A8A4265
S214001960A8BFADF81820BDF91A20B8BFADF81810FA
S214001970B4F97410D21A8A42A8BFADF81A20BDF97D
S2140019801C20B8BFADF81A10B4F976101A448A4273
S214001990D8BFADF81C20BDF91E20C8BFADF81C107E
S2140019A0B4F978101D4613448B42C8BFADF81E101C
S2140019B0204606A9D8BFADF81E3007F0A1FA88B9B0
S2140019C009B0BDE8F08FB7F9DA30002B0FFA81F8CE
S2140019D04FF00006BEDC06A92046002507F090FA68
S2140019E00028EDD0BDF81820BDF81A30AAEB020A80
S2140019F0A9EB03093946204605F00EFA0FFA8AFAD3
S214001A000FFA89F9D7F828B1002E00F0868006FB79
S214001A1006F343451FFA88F505DA97F8D52012F045
S214001A20010200F0B58006EBD676C6F34F067319B2
S214001A3000221BB24FF00108CDE90093CDE9032840
S214001A400292534639462046AD1B00F047FC2DB2A5
S214001A50744A0292534602220195CDE90388CDF8D6
S214001A6000903946204600F039FCD4F880200BF46C
S214001A70206B52014BF0C50305D597F8D52012060A
S214001A8002F080721343009306AA042339462046C8
S214001A9002F08AF9D4F8BC31D4F8B821013B00250D
S214001AA002F10801AB42C4F8B811C2E90050C4F80C
S214001AB0BC3100F3B580D4F8C0312046984706AA5A
S214001AC039462046002304F027FD3946002306AA9F
S214001AD0204606F0F3FA20462A4606A905F064FCDE
S214001AE0012009B0BDE8F08F01F10F030D44AAEB09
S214001AF001025344A9EB010125F00F0523F00F0363
S214001B0022F00F0221F00F01ADF81E50ADF81C3088
S214001B10ADF81820ADF81A1018E7012153463246E2
S214001B200491CDE902663946CDE90098204600F0DA
S214001B30D5FBD4F880200BF4007B4BF44003510116
S214001B4043F0410305D597F8D520120602F08072BF
S214001B501343009306AA02233946204602F024F9CE
S214001B60D4F8BC31D4F8B821013B002102F10806B4
S214001B708B42C4F8B861C2E90010C4F8BC3103DC7B
S214001B80D4F8C0312046984745440F352D0996E7CE
S214001B9006F1100303EBD373591001350903012036
S214001BA02DB2039253460291049039462046019581
S214001BB0CDF800900BF4007B00F090FB4BF4004354
S214001BC043F04103009306AA02233946204602F05A
S214001BD0EBF8D4F8BC31D4F8B811013B8046360394
S214001BE001F108021620002BC4F8B821C1E900064E
S214001BF0C4F8BC3107DCD4F8C03120469847D4F886
S214001C00B821D4F8BC31013B002502F10801AB42F3
S214001C10C4F8B811C2E90058C4F8BC317FF74BAF1E
S214001C2000254CE70080FFFF30B583B0846ABDF91D
S214001C301850CDE9003513460A462146FFF752FEF6
S214001C40002003B030BD00BF70B582B0B0F8704061
S214001C5000931319B0F86E40C56ABDF91860019676
S214001C6021440AB21BB22946FFF73CFE002002B010
S214001C7070BD00BF2DE9F047B0F96CA082B0BAF194
S214001C80000FBDF9284016DD002C88460746914611
S214001C909EB2C16ACAF34F0511DC04EBD47406EB9E
S214001CA0640425442DB2CDF804A000954B46424668
S214001CB03846FFF717FE002002B0BDE8F087A6EB17
S214001CC064035B1B1BB2CDE9003A13464246FFF79E
S214001CD009FEF96AE1E700BF2DE9F04383B0044648
S214001CE0BDF92860B0F96C50002E0F469046994614
S214001CF01EDD002D11DC204605F03AF8A16A4346A9
S214001D003A46CDE900962046FFF7ECFD204605F062
S214001D1035F8002003B0BDE8F08306EB45052DB28C
S214001D20C16A0093019513463A46FFF7DBFDE2E7EA
S214001D30E1D1002DDFDDA5F1100303EBD37309EB32
S214001D40630308351BB22DB2C16ACDE900351346D0
S214001D503A46FFF7C7FDCEE72DE9F047B0F87060CA
S214001D60B0F86E5082B00F46BDF928A0C16ACDF813
S214001D7004A09946904693197A1904461BB212B2EB
S214001D80CDF80090FFF7AEFD204604F0F1FFA16A03
S214001D9043463A46CDE9009A2046FFF7A3FD204683
S214001DA004F0ECFF002002B0BDE8F08770B50646F0
S214001DB04FF4BE7004F03EFB0446002800F0A880F6
S214001DC06FF07F43C4E90233022184F8D510002265
S214001DD04FF0FF30102184F80E212061A182D6F842
S214001DE08010C4F828214FF07F43C4F84C31C4F863
S214001DF05031C4F854310B014FF0040184F8E91057
S214001E00736DC4F8C8104FF4B052C4F81C2143F4E4
S214001E10012348BF404A666058BF4FF4800243F42F
S214001E20C06313434FF4703100254FF48030C4F87C
S214001E302021C4F824314FF400220123C4F83411C1
S214001E40AA21C4F81001C4F82C2110204FF48032C7
S214001E50C4F83C51C4F84051C4F844512583C4F832
S214001E60CC50A4F8DA5084F80F51C4F8FC50C4F8EB
S214001E700051C4F80451C4F80851C4F84851E3822C
S214001E8084F8D430A4F80C31C4F814114023C4F8F4
S214001E90C41040F20111C4F83021C4F81821A4F887
S214001EA0D610A4F8D830C4F8D00004F11C0001F015
S214001EB073FF04F1340001F06FFF04F14C0001F0F1
S214001EC06BFF04F1640001F067FF04F17C0001F091
S214001ED063FF04F1940001F05FFF04F1AC0001F031
S214001EE05BFF0E49C4F8DC504FF0FF330C22C4E908
S214001EF03831C4F8383184F8E8202146304605F0F9
S214001F00E3FDF369236086F8C651F461204670BD90
S214001F10012386F8C631F9E70800402001030303D1
S214001F2038B5036A8B422ED000F11C031C688C4225
S214001F3007D02346002CF9D1032380F8C631184673
S214001F4038BD0A681A60436A994219D0C36A9C422F
S214001F5004BF036AC362836A9C4204BF036A836247
S214001F600546D4F8080120B107F088FE0023C4F81F
S214001F700831204604F060FA002085F8C60138BD16
S214001F80036A4362E2E7072380F8C631184638BD85
S214001F90436A93F80E21D97542F0010283F80E21A8
S214001FA0032909D8DFE801F00D0D180293F8D520B3
S214001FB042F00C0283F8D520002380F8C63118467C
S214001FC0704793F8D52022F00C0283F8D520002322
S214001FD080F8C6311846704793F8D52022F00802DC
S214001FE042F0040283F8D520002380F8C631184654
S214001FF0704700BF10B4436A023122F07F4243F8B4
S214002000212093F80E210446002142F0010283F8B5
S2140020100E2184F8C61108465DF8044B704700BFD1
S21400202030B4436A9C7C93F80E2199748C4242F03B
S214002030010518BF42F0070283F80E5118BF83F857
S2140020400E219A7DD20744BF0906C3F84C1100231F
S21400205080F8C63130BC1846704700BF30B4446ABA
S21400206094F80E3143F00103054684F80E31032937
S21400207030D8DFE801F00F0A020C4FF40071032A93
S21400208028D8DFE802F02F0C2C0A0021F7E74FF4DF
S2140020902061F4E74FF40061F1E741F4A051D4F871
S2140020A02021D4F82C31686DC4F81C111343D4F8E1
S2140020B03C210343D4F840011343D4F8442103439E
S2140020C013430B430022C4F8243185F8C62110467A
S2140020D030BC7047102085F8C60130BC704741F40C
S2140020E08061DCE741F48051D9E700BF30B4436A31
S2140020F0044693F80E01002540F0010083F80E0117
S2140021001D76D4F88000000107D4012910D051B9FB
S214002110012A08D14FF440010EE0032903D8DFE876
S21400212001F039372635102084F8C60130BC7047D8
S214002130002AF8D14FF48001D3F82C01D3F81C21E3
S214002140656DC3F820110243D3F83C012A43D3F847
S21400215040510243D3F844012A4302430A43002174
S214002160C3F8242184F8C611084630BC70470E49CF
S214002170032AD8D801A050F822F000BFA3210000FF
S214002180392100009D210000992100000749EFE752
S2140021900749EDE70749EBE741F0005141F08001C0
S2140021A0CAE741F00051C7E7480040004800401029
S2140021B00800400008004010436A93F8D520A1B9F3
S2140021C030B422F003024FF4FC454FF48034102163
S2140021D083F8D520C3F82851C3F81041998200230C
S2140021E080F8C63130BC1846704742F00202002123
S2140021F083F8D520C3F82811002380F8C631184686
S214002200704700BF436A02290CBF0322002283F8EE
S214002210D61083F80F21002380F8C6311846704781
S21400222010B40346446A002284F8D71083F8C62107
S21400223010465DF8044B7047F0B5DDE9056530B330
S2140022400124D0F824C08C4056EA050EE4B29CF86F
S214002250197017D03C4301EB4101079F0CEBC101FD
S21400226047F001074FF0000E0A864B86C1E9086565
S214002270CF61C1E90AEE8CF81940002380F8C63118
S2140022801846F0BD27EA04048CF81940F5E702204A
S214002290F0BD00BF30B4D0F84C11027C437C90F8FF
S2140022A00E416FF07F45090A01FB025201FB035302
S2140022B002F07F4224F0020103F07F43C0F8502171
S2140022C0C0F8543180F80E1130BC70470346416A9E
S2140022D00022C87D83F8C621704700BF2DE9F04F65
S2140022E089B0DDE91494BDF94CC0BDF9487091F889
S2140022F0D56003941FFA8CFAA3EB0A0B1546A7EBDE
S2140023000A0AF2070446DDF858E00FFA8BFB0FFACC
S2140023108AF040F18C8000FB00F20BFB0B220BEBEB
S2140023200006002A0CEBDC7BD1F81001B1F914A0F2
S21400233006EB6B0BB8BFFF32C3F10801C7F1080309
S2140023401612009349005A46ABFB0078D317069145
S214002350009900FB0383CDE9047849000593F31741
S21400236007919846BEF1000F40F017810FFA8CF2E5
S214002370D3174FF078404FF0FF312FF00BF90FFADC
S2140023808AF2090241EA1061D31700022FF002F91F
S214002390474600FB07F7A0FB062306FB01773B44F6
S2140023A0002A73F100068C4602DA0F3243F100036E
S2140023B0DDE9047846464FEA121A31014AEA037A02
S2140023C041EA17764FEA231B3B0100930196DDE9AD
S2140023D00067BAEB06066BEB0707002E77F10003E3
S2140023E002DAFF3647F10007634600284FEA162C4C
S2140023F073F1000102464CEA076C04DA40F6FF70FF
S214002400002112184B414FEA123A4AEA035A069B39
S21400241003FB0AF1079B002903FB0AF7B8BF0F313D
S214002420002F4FEA211BC0F2B5803F1118E05BEA8F
S214002430000240F08780CCF1080B4FEA4B0B924B22
S21400244093FBFCFA0AFB0BFBBBF1000FB8BF0BF1CA
S2140024500F0BCCEB4C5C4FEA2B1B4FEACC2C5F46A9
S214002460D4F8B831D4F8BC21039903F10806013A30
S214002470281D002940F0C1800CEB0901002AC4F891
S214002480B861C3E90001C4F8BC2107DCD4F8C03148
S21400249020469847D4F8B861D4F8BC21013A06F132
S2140024A00803691D002AC4F8B831C6E9001BC4F841
S2140024B0BC2107DCD4F8C03120469847D4F8B831A0
S2140024C0D4F8BC21013A03F1080105F11000002AF6
S2140024D0C4F8B811C3E90007C4F8BC2107DCD4F877
S2140024E0C03120469847D4F8B811D4F8BC21013A38
S2140024F04FEA4A0601F1080305F10B00002AC4F86A
S214002500B831C1E90006C4F8BC2107DCD4F8C031F4
S21400251020469847D4F8B831D4F8BC21013A113592
S21400252003F10801002AC4F8B811C3E90056C4F83C
S214002530BC2100F3A580D4F8C031204609B0BDE820
S214002540F04F184700FB00F20BFB0B22C3F108010B
S21400255049004E4B93FBFCFAC7F1080782FB0A239F
S2140025604FEAEA0A0AFB01F17F00584400290CEB07
S214002570DC7C4FEAD22B0AFB07F74BEA435BB8BF7B
S2140025800F3100EB6C0C002FABEB0C3C4FEA211B21
S214002590BFF64BAF0F373F1162E7D4F880305B01D0
S2140025A07FF5E4AE069B4FF0784292FBFCF2920178
S2140025B092FBFAF24FEA221A03FB0AF1079B002964
S2140025C003FB0AF7B8BF0F3182FB0623002FB8BF04
S2140025D00F37002A4FEA211B73F100014FEA271735
S2140025E002DA0F3243F1000304994FEA121C880006
S2140025F04CEA037CACEB000C32E7CCF1000CACEB05
S2140026000901002AC4F8B861C3E90001C4F8BC2176
S21400261007DCD4F8C03120469847D4F8B861D4F81F
S214002620BC21013ACBF1000106F10803681D002A1F
S214002630C4F8B831C6E90001C4F8BC2107DCD4F8F8
S214002640C03120469847D4F8B831D4F8BC21013AB6
S2140026507F4203F1080105F11000002AC4F8B81102
S214002660C3E90007C4F8BC2107DCD4F8C031204613
S2140026709847D4F8B811D4F8BC21CAEBCA7A36E722
S21400268009B0BDE8F08F00BF0000F8FF0000C0FFF3
S214002690F0B5064683B014200D46B76903F0CAFEAF
S2140026A00446D8B1B36E856005EB85050022A90007
S2140026B0DD07C26015D4304603F0EAFE01466060CE
S2140026C021B3B36E0022D807226105D4D6F8843031
S2140026D0DA060CD49B070FD400232360204603B0F1
S2140026E0F0BD084603F0A6FE01466060E8E73846FF
S2140026F007F0D2FA2061EFE7A26802EB82023846C2
S2140027009200042107F0BEFA2061E5E72046019119
S21400271003F092FE01990C46E0E700BFF8B5876922
S21400272021B305460C460DE0284603F0D3FE226989
S2140027301AB1D5F884309B070ED4204603F07CFEF1
S21400274034469EB1AB6ED4E9006113F0010F084623
S214002750EAD003F071FEEAE70421384607F096FA5D
S214002760204603F069FE3446002EEBD1F8BD00BFCC
S214002770836810B50446186838B1D0E901230021F3
S214002780C1602261E361A06010BD216A2068FFF786
S2140027907FFF10B1A3681860EFE72368152283F85F
S2140027A0C72110BD436970B505460068EBB15A688D
S2140027B086696AB100241A6852F82420013422B1CE
S2140027C00421304607F062FA6B695A68A242F2D8D2
S2140027D0186803F031FE686903F02EFE286B18B106
S2140027E0BDE8704003F028BE70BD6968FFF796FF2D
S2140027F0F4E700BF2DE9F0434569C26983B004469B
S214002800002D68D0AB69002A37D10168012B8F698B
S2140028103AD9D0F808802969D8F80C902369D8E905
S21400282001E000EB800080000EEB000C0E18B9F102
S214002830000F03D0C9F80060C8F80C209C4505D9E5
S2140028404FF0803043F8040B9C45FBD8D8F808308E
S2140028504FF0100C03EB83039B0072463846CDF80E
S21400286000C007F01DFAAB692E61013BAB61204644
S21400287003B0BDE8F043FFF77BBF012B02D003B0E7
S214002880BDE8F08301688F69EA69012A1CD9EE6801
S214002890A1687068013AEA618846002800F0CF8097
S2140028A02369D8F80CC01A46BCF1000F31D04FF09F
S2140028B0000ECCF80000C8F80CE0A069032835D854
S2140028C0DFE800F02F8B7E71D1D1012B04BF1523DA
S2140028D081F8C731CBE70669654B336033468768B6
S2140028E043F8045F013AFB6040F2FF3106F10C0347
S2140028F0B1600361C0E90652FFF73AFF236893F917
S214002900C731002B30D1A3685B68736003B0BDE8A5
S214002910F083DFF85CC1C3F800C043F8040F083248
S214002920CB6040F2FF3342F8043B2261D1E9012339
S214002930E069296900F1FF3C4FF0000E384603EBD2
S21400294083031027C4F81CC09B00C4F818E0009747
S21400295007F0A6F97368002B89D0331DEB60726808
S2140029606B692A61AB6182E72369A269A3F10C0156
S2140029702161032A11D8DFE802F03D54450253F8DE
S2140029800C2C22F07F4242F0004240F2FF3003F16E
S214002990080143F80C2C58602161E3690022013BD2
S2140029A0C4E906236BE71A6822F07F4242F0004231
S2140029B01A6040F2FF3003F1140218612261B5E795
S2140029C01A8842F0004242F400021A6040F2FF30D9
S2140029D003F11002D8602261A8E71A7842F080223C
S2140029E042F400021A6040F2FF3003F10C029860D5
S2140029F022619BE740F2FF31A3F1080243F80C1C6A
S214002A002261CAE733F80C2C194642F0004242F421
S214002A10000240F2FF3043F80C2C41F8040B216111
S214002A20BBE713F80C2C42F0802242F4000240F27E
S214002A30FF3143F80C2C43F8041C2361ADE7AA6869
S214002A4002EB820292000421384607F01BF9706000
S214002A5010B12369A16824E72368012283F8C721FF
S214002A6023697068A1681A4600283FF426AF18E765
S214002A703280808082690369032A0BD8DFE802F07F
S214002A800F021E101A7842F0802242F4000243F829
S214002A90082B0361C3690022013BC0E90623704787
S214002AA01A6822F07F4242F0004243F8102B03617E
S214002AB0C3690022013BC0E90623F0E71A8842F00A
S214002AC0004242F4000243F80C2B0361C369002263
S214002AD0013BC0E90623E2E701688A6E12F0200295
S214002AE030B407D101F2771301F5D97103F8012F3D
S214002AF08B42FBD142684369C0E902223BB11968A8
S214002B00D9600D685C6859691D61C3E90614D2E98D
S214002B10013203610023C0E90632C36230BC70474D
S214002B202DE9F04786690D464FF000082C6814F032
S214002B30803F14D0B4F1803F3DD02204E7B23CD5AC
S214002B40322F00F096806A683946304601F082FCE3
S214002B50202F65D008352C6814F0803FEAD15FFA44
S214002B6084FA51466A68304601F074FCBAF1200FC8
S214002B70C4F30729C4F307474FEA14644CD0AA6885
S214002B804946304601F066FCB9F1200F40D0EA68AD
S214002B903946304601F05EFC202F35D02A692146A2
S214002BA0304601F057FC202C2AD01435BEE7002C06
S214002BB042DBFF2F17D00435B8E72302F7D5FF2FE7
S214002BC0C4F3072430D06A683946304601F042FC28
S214002BD0202F55D0AA682146304601F03BFC202C19
S214002BE04AD00C35A2E7C4F30728B8F1020F02D08A
S214002BF0B8F1040F3DD13046043501F031FC95E7BD
S214002C00304601F02DFCD0E7304601F029FCC5E740
S214002C10304601F025FCBAE7304601F021FCAEE76D
S214002C20304601F01DFC95E7022C21D130460435D4
S214002C30A04601F015FC79E76A683946304601F08F
S214002C4009FC202FC4F30729C4F307441CD0AA6844
S214002C504946304601F0FEFBB9F1200F1CD0EA6869
S214002C602146304601F0F6FB202C11D010355DE7EA
S214002C70A0464046BDE8F087304601F0F1FBB0E7DD
S214002C80304601F0EDFBA5E7304601F0E9FBDEE754
S214002C90304601F0E5FBE9E7304601F0E1FBDEE710
S214002CA02DE9F04FD0F8B411D0F8B871836EC4682F
S214002CB07F1A13F0200883B081462268A5694FEA80
S214002CC0E7070E4655D12369002F49D092F9C70170
S214002CD0002845D101F1080602F18C01CDF80490D8
S214002CE0DFF8F8B102F5BC7A894606E0474533D0EE
S214002CF0226892F9C721083672BB56E9021C1BF8F7
S214002D00012003EB850E08F10108681C62B11AF970
S214002D1001201AB159F821206245E7D04FF0010290
S214002D200AF8012049F821C0E26A5955013210F02C
S214002D300305CEF804C0E262D8D1E2692369013AFD
S214002D401433012A2361E261D0D8A5612046FFF73B
S214002D5051FD47452369CBD1DDF80490D9F8B4611D
S214002D60A5614023C9F8B861C9F8BC3103B0BDE815
S214002D70F08FE36A3B44E36292F9C731002BF0D14F
S214002D806DB32069002FECD001F108038C468A460B
S214002D9002E00833002D5DD053E902E600EB850221
S214002DA05FFA8EF14155013F05F101058DF804E00B
S214002DB0566005F003059846EBD166465146002D51
S214002DC0CFD1E369A561013B1430012B2061E3619B
S214002DD072D82046FFF70EFDD9F8B4116CE04FEA22
S214002DE0970A07F00307BAF1000F67D006F120052F
S214002DF04FF0000807E0C2453FD9236893F9C73172
S214002E002035002B35D1236955F8202C1A7055F83B
S214002E10182C5A7055F8102C9A7055F8082CDA7041
S214002E2055F81C2C5A6055F8142C9A6055F80C1C52
S214002E30E269D96055F8041C1961013A1433012A75
S214002E4008F101082361E2612E46D4D82046FFF738
S214002E50D1FCD0E7E369A561013B1430012B514654
S214002E6020614FEA970AE36107F0030729D946462F
S214002E70B9E7D9F8B46174E74646002FACD02368AA
S214002E8093F9C731002BA7D1D9F8B4112069A369EB
S214002E9006EBC70707F1080C06F1080252E90276AE
S214002EA000EB83050832C754944503F101036E60B6
S214002EB003F00303F2D1A3610E4652E7002FE5D1DB
S214002EC0FAE72046FFF796FCBAF1000FD4D0236845
S214002ED093F9C731002BCCD1464687E75021030033
S214002EE038B50446FFF7DCFEE06882690369032A0A
S214002EF00FD8DFE802F0332619021A6822F07F4264
S214002F0042F0004240F2FF4503F114011A601D61D1
S214002F100161C369013B0022012BC0E9062323D9C6
S214002F20002084F8C60138BD1A8842F0004242F4F8
S214002F30000240F2FF4503F110011A60DD600161F6
S214002F40E7E71A7842F0802242F4000240F2FF459A
S214002F5003F10C011A609D600161DAE740F2FF425E
S214002F6043F8042B0361D4E7FFF744FC002084F801
S214002F70C60138BD38B50446FFF792FEE0688269A0
S214002F800369032A0FD8DFE802F0332619021A680D
S214002F9022F07F4242F0004240F2FF2503F1140186
S214002FA01A601D610161C369013B0022012BC0E963
S214002FB0062323D9002084F8C60138BD1A8842F0BB
S214002FC0004242F4000240F2FF2503F110011A60AD
S214002FD0DD600161E7E71A7842F0802242F40002E1
S214002FE040F2FF2503F10C011A609D600161DAE7EB
S214002FF040F2FF2243F8042B0361D4E7FFF7FAFB05
S214003000002084F8C60138BD2DE9F04103689D6EA6
S21400301015F0010582B026D1D0E90264B442074615
S214003020D3F8188012D0236840461BB1E2680AB174
S2140030301B691360D4E9012303EB83032169009520
S2140030409B0006F02DFE2468A642ECD1D6E90123AB
S214003050F86931691B1A03EB8303002440469B0082
S214003060009406F01DFE02B0BDE8F08103689A6E7B
S214003070D20720D42DE9F041D0E90254AC420646EE
S2140030809F690BD0D4E9012303EB83039B00042143
S214003090384606F00DFE2468A542F3D1D5E9012393
S2140030A0F1695B1A03EB830338469B000421BDE8F5
S2140030B0F04106F0FDBD704703689A6ED20726D42D
S2140030C02DE9F041D0E90254AC4206469F6911D082
S2140030D02368042138461BB1E2680AB11B691360F5
S2140030E0A368226903EB83039B0006F0E1FD2468D6
S2140030F0A542EDD1F169AB682A695B1A03EB83033D
S21400310038469B000421BDE8F04106F0D1BD70476B
S2140031102DE9F0410C4682B0054608681646FFF7D2
S214003120BFFDA2692369032A0FD8DFE802F0423503
S21400313028021A6822F07F4242F000421A6040F2EB
S214003140FF3103F1140219612261E369EA6F013B62
S2140031500021C4E90613002A60D06369002B51D011
S2140031606EBB0023E3612046FFF744FB6369A26859
S214003170E260002B3AD0186902B0BDE8F0811A88E8
S21400318042F0004242F400021A6040F2FF3103F1BE
S2140031901002D9602261D8E71A7842F0802242F401
S2140031A000021A6040F2FF3103F10C0299602261BE
S2140031B0CBE740F2FF3243F8042B2361C5E72068D3
S2140031C000F04AFAA268E56993686169526809697D
S2140031D05B1B03EB830300259B00009506F060FD58
S2140031E02046FFF779FC00206062C5E7D5F88430FA
S2140031F013F0120F02D010690028BDD1206902B06A
S214003200BDE8F081D5F884309A07204623D4DB0643
S2140032101CD5FFF751FF002EA3D0E1E7D4F80880B5
S214003220D8F80010E1B1A36A01333C2BA36294D115
S2140032300F6827B1884639460F68002FFAD12068F4
S214003240FFF76CFAC8F80070A76286E7FFF70EFF74
S214003250002E86D0C4E7FFF7D7FE002E81D0BFE74A
S214003260A1627AE7B1F934200B6B002A06DD03EB86
S2140032708202002043F8040B9342FBD10023CB8646
S214003280704700BFB1F93400F8B5B1F93650431EA7
S214003290AB420C461646096B06DDA8006B1C41F8CF
S2140032A025600844E386F8BD103000B2A0860122EF
S2140032B0800003F0C3F8B4F9342020639542014639
S2140032C04FEA8500EADA01EB82020B18002743F882
S2140032D0047B9342FBD16B1C41F825600844E386CF
S2140032E0F8BD00BF2DE9F843D0F87C9008600024B4
S2140032F080460D464C61B9F1000F66D0D9F8003013
S2140033004B60202003F096F806466861002859D0E6
S214003310D9F80800800003F08DF8074630600028D2
S21400332050D0D9F80430D8F88820D9F80810716041
S21400333002FB03F2B260736139B12346204647F8B8
S2140033402300013399423768F9D102EB82029200DA
S214003350F7600421D8F8180006F094FC386033684B
S2140033601B687BB37168726968683361C6E90621B9
S214003370E86038B3D0E9014100231022A8602C6130
S214003380C5E90631C5E90A33AA86402003F052F89B
S2140033902863B8B16B69EBB11B681A68B5F93430AD
S2140033A0002B06DD00EB8303002140F8041B984247
S2140033B0FBD100234046EB862946FFF763FF01203A
S2140033C0BDE8F8830020BDE8F8831146FFF760F9F2
S2140033D06860CDE7D8F884206B6812F0120F02D030
S2140033E01A69002ADAD15A68D8E700BF70B50646CF
S2140033F04FF4EA7003F01EF8044600284FD000256C
S21400340002224FF400138666A0F8C651C0E906559E
S214003410C0E9135582644365FEF7C8FC7106C4E92B
S2140034200800C4E90A0041D5CC220023C4F888204D
S214003430720784F8C631C4E90D3384F8C431C4E990
S2140034400F336364C4E91B336367A4F87830C4E9B8
S2140034500433C4E90233636054BF05230423012107
S214003460E3653307256361661BD400222266E267A4
S21400347004F1880304F2771104F5BA7043F8042FB8
S214003480834201F8012FF9D10B4BC4F8802019684C
S21400349084F8C8210822216084F8C5211C602046D3
S2140034A070BDE36D23F00403E365DEE7702002F0F1
S2140034B0C1FF0546B8E700BF1C16FE1F70B50446E0
S2140034C000F09AFFA06100284ED004F2771304F5AE
S2140034D0D971002203F8012F8B42FBD1E56FD4F897
S2140034E0882085B111462046FFF7D2F8D4F8881018
S2140034F0286006462046FFF7CBF82B683060196830
S214003500D4F888200B601146204603F021FBD4F83F
S214003510882020611146204603F01AFB236960616B
S214003520F3B1E8B10025C4E90233606065634FF487
S214003530007002F07FFF4022164BC4F8B401C4F8B6
S214003540B80184F8C951C4F8BC21C4F8C0310A21B6
S214003550A06906F0C5FA58B9002084F8C60170BD07
S214003560012084F8C60170BD052084F8C60170BD30
S214003570FF232A460A21A06906F09AFA2A460A215B
S214003580A06906F0A1FAFF2804BF012384F8C93118
S214003590E2E700BFA12C000038B5836904464BB3B0
S2140035A0C36F2BB119680B6800221A60FFF7B6F8D4
S2140035B0D4E904150023C4E9043311B1204603F00E
S2140035C005FB1DB12946204603F000FB0025D4F874
S2140035D0B4016560C4E90255656302F02DFFC4F8C6
S2140035E0B451C4F8B851A06900F02CFF84F8C601A5
S2140035F0A56138BD80F8C631184638BD70B58669F5
S214003600054616B1FFF7C8FF0646124B1C68AC42CB
S21400361005D02346002CF9D10226304670BDE96954
S2140036202A681A6000232B6229B12046FEF778FC30
S214003630E1690029F9D1E06F08B102F0FDFE206BC8
S21400364008B102F0F9FE00232046236302F0F4FEE0
S214003650304670BD1C16FE1F80697047B8B338B57B
S214003660436E8B4204460D460DD0082B0FD008291A
S21400367020D1426A92F80E31656643F00103082DA8
S21400368082F80E310FD0002084F8C60138BD426A99
S214003690616692F80E3143F0010382F80E3103F0B2
S2140036A06DFB082DEFD1204603F062FB002084F866
S2140036B0C60138BD03F068FB626A92F80E3100213D
S2140036C043F0010382F80E3184F8C611D4E70220D5
S2140036D0704700BF0023A0F86C1080F8C63118466B
S2140036E0704700BF38B110B5044600F0C3FE002096
S2140036F084F8C60110BD0220704700BF10B5C4682C
S214003700FFF7CEFA636822695B689A4201D001200F
S21400371010BD60690028FBD0026803691068C01AF3
S214003720B0FA80F0400910BD2DE9F84F0C9CDDE999
S2140037300A6CD4F810411CF0010F1F4606FB06F376
S21400374008BFA146054618BF4FF0000907FB073023
S2140037501CF0020F08BFA3468846924618BF4FF0DB
S214003760000B02F0E3FD0D9B240194FBF0F003B187
S214003770186074420C9B00FB04F400FB07F0D3F8BF
S2140037801031241100114744C8F1000800FB07F768
S21400379004FB08FC04FB0AF156445B0804FB16769F
S2140037A000FB1AC200FB081803EB22120BEB2616CE
S2140037B009EB2811674243426C602C62AE61A86038
S2140037C028612A60E9606F61EB61BDE8F88F00BF91
S2140037D02DE9F84FDDE90A6C9A461CF0010F06FB4E
S2140037E006F3054618BF00270AFB0A3008BF4FF449
S2140037F080371CF0020F0C9C8B46914614BF4FF08E
S21400380000084FF4803802F091FD4FF4801393FBCC
S214003810F0F004B12060744200FB04F4241100FBB5
S2140038200AF0CBF1000C0011DA4404FB0CF34E4412
S21400383000FB193300FB0AFA04FB09F904FB16A681
S2140038401B1100FB0C9908EB261603F5004307EB4B
S2140038502917614242426C602C62AE61A860286102
S2140038602B60EF606961EA61BDE8F88F2DE9F047EB
S214003870DDE9084515F0010F0CBF4FF4803E4FF010
S214003880000E15F0020F0CBF4FF4803C4FF0000CFA
S214003890002B0A9E03EB010704EB020556DB002C07
S2140038A031DBC2F10008A3424FEA083871DDC3F1EC
S2140038B00009240494FBF9F402FB04F905FB04F563
S2140038C001FB04F24FEA29192D11A9EB0139C5EBCA
S2140038D00737A8EB22116242002E00F0A680784D32
S2140038E033604FF4803301F50046674409EB0E0160
S2140038F00660C1608761C0E90143C0E90432C0E9DF
S2140039000754BDE8F087C4F10008C1F1000A9845E5
S2140039104FEA0A3A70DB1B0493FBF8F301FB03F152
S21400392009112D0307FB03F702FB03F4C1EB023971
S214003930C5EB2717AAEB24115D42002E00F0BB80D2
S214003940C6F800805E4A4FF48034CCE7002C74DB67
S214003950C3F10009A1454FEA013833DD24043F03D3
S21400396094FBF3F401FB04F102FB04F94FEA211A7D
S21400397005FB04F57F42CAEB023108EB2919A7EBD9
S21400398025176242002E76D033604FF480354C4BBC
S214003990A9E71B0493FBF4F302FB03F22D0301FBE0
S2140039A003F9121107FB03F705EB2717C2EB0131EA
S2140039B0A8EB29195D42002E3BD034604FF48032CC
S2140039C03F4C90E71B0493FBF4F301FB03F1091152
S2140039D02D03C2F1000907FB03F702FB03F205EB18
S2140039E02717C1EB09395D42A8EB2211002EE4D15E
S2140039F04FF48032324C76E7C3F10008240494FB7F
S214003A00F8F401FB04F105FB04F54FEA21182D112B
S214003A10514202FB04F20AEB2219C5EB0737C8EB4A
S214003A2001316242002E7FF45AAF254D4FF48033A9
S214003A3059E7234C4FF4803255E7A3424FEA023849
S214003A401DDA3F0324047F4294FBF3F402FB04F9DF
S214003A5005FB04F50A0301FB04F102EB2919A7EBA9
S214003A602517A8EB211162422EB15B4233604FF45A
S214003A708035134B37E74FF48035114B33E76442FC
S214003A801B0493FBF4F302FB03F24FEA221A2D0306
S214003A90C1F1000901FB03F207FB03F7C5EB27178B
S214003AA0CAEB09315D42A8EB221926B13460044AFC
S214003AB04FF4803417E7024A4FF4803413E700BF10
S214003AC00000FFFFF0B4002BDDE9046528DB002EC4
S214003AD013DBB34233DD3404120394FBF3F301FB30
S214003AE003F1C2EB21115B424FF4803605B1013180
S214003AF08660C0E90013F0BC704777421944324430
S214003B009F420CB212B224DA3604120396FBF3F389
S214003B1004FB03F1C2EB21115B424FF48036E5E76C
S214003B20002E2CDB5C42B4421FDD340494FBF3F31E
S214003B3001FB03F10911C1EB02311A4ED6E71B0453
S214003B4093FBF6F602FB06F21211164BC2EB01319E
S214003B50CCE71B04210393FBF6F402FB04F2664257
S214003B60C1EB22114FF48033C0E71B0493FBF6F63B
S214003B7002FB06F21211C2EB01310A4BB6E71944FA
S214003B803244B34209B212B2CFDD1C04090394FBDF
S214003B90F6F402FB04F26642C1EB22114FF48033C6
S214003BA0A4E700BF0000FFFF2DE9F043DDE907466C
S214003BB0002BD6F8107138DB002C1EDBA34223DC6A
S214003BC01B0493FBF4F402FB04F384FB07451B1170
S214003BD04FEA144CC3EB01337A424CEA054107EB3B
S214003BE0D775B6F9144081601B0193FBF4F303EB21
S214003BF06503C0E90032BDE8F083654219442244FB
S214003C009D4209B212B237DA240494FBF3F383FB25
S214003C1007894FEA184501FB03F3120345EA0945F5
S214003C20C2EB231339466A42D9E7002C36DB5D42E5
S214003C30A542C7F1000C0FDD240494FBF3F401FB4E
S214003C4004F384FB07891B114FEA1844C3EB0233C5
S214003C50614644EA0942C2E71B0493FBF4F402FB04
S214003C6004F384FB07451B114FEA144EC3EB0133E4
S214003C7062464EEA0541B2E71B0493FBF4F383FB6E
S214003C8007894FEA184C02FB03F309034CEA094C78
S214003C90C1EB23133A46CCF10001A0E719442244B5
S214003CA0A34209B212B211DD1B0493FBF4F484FBA9
S214003CB007894FEA184C02FB04F34CEA094C0A0346
S214003CC0C2EB2313CCF100013A4688E7240494FBA8
S214003CD0F3F383FB078901FB03F109114FEA18454B
S214003CE0C1EB023345EA0942794278E730B4DDE9B0
S214003CF00254002D03DA19442A4409B212B205FB15
S214003D0001F103FB12126D4212022D031B0304B1D4
S214003D10013202F50042C0E90025836030BC7047DE
S214003D202DE9F843DDE90845002C07468846164687
S214003D30994604DA984426440FFA88F836B204FB0B
S214003D4004F009FB090002F0F1FA64424FF4801215
S214003D50B2FBF0F000FB04F4C8F10008241100FBED
S214003D6009F304FB08F21B1103FB1626361105B1F6
S214003D70013606F50046C7E90064BB60BDE8F88377
S214003D80836810B404685A4201FB034101608260F4
S214003D905DF8044B704700BF0023C0E90033C0E95C
S214003DA00233C0E9043370472DE9F0470C46497EDC
S214003DB01F46CB070646904640F18F80E369DD0735
S214003DC040F13082052F03D9089D2846BDE8F087CC
S214003DD0B2F90000B4F93050216AB4F93220B8F9CB
S214003DE002C02D1A606A01FB05F5A2EB0C0200FB6F
S214003DF002520898121100F0807E180748BF013260
S214003E00DD0648BFA2F580320125580705FA07F5FA
S214003E1006D54FF40070A2F50042B840013A0543BB
S214003E20580604D578084FF4003383401D43D6F86F
S214003E30B8C1D6F8BC3152420CF10800013B07F17C
S214003E400409BEF1000F00F00F829201002BC6F8A5
S214003E50B801CCE90092C6F8BC3108DCD6F8C0310F
S214003E6030469847216AD6F8B801D6F8BC31013BEF
S214003E70890100F1080C07F10A02002BC6F8B8C148
S214003E80C0E90021C6F8BC3107DCD6F8C0313046A0
S214003E909847D6F8B8C1D6F8BC31626A013B9101A2
S214003EA00CF1080007F11002002BC6F8B801CCE9A7
S214003EB00021C6F8BC3103DCD6F8C031304698473E
S214003EC0E369089A617E5B0645EA020554BF25F45D
S214003ED0000325F4400308930137880700F11A8190
S214003EE0089DA37D9A0740F18A80627E500740F1C4
S214003EF08680E06CC10740F1B081052F3FF665AFC4
S214003F00B8F90020B4F960C0B8F902E0216DB4F940
S214003F106230ACEB020C626DA3EB0E0301FB0CFCF3
S214003F2002FB03C31B11020748BF0133C20648BF8A
S214003F30A3F580334FF00109420705F0807E09FAA9
S214003F4007F907D54FF40072A3F50043BA40013BCA
S214003F5049EA0209400605D578084FF40032824047
S214003F6049EA0209D6F8B8C1D6F8BC215B420CF182
S214003F700800013A07F1040ABEF1000F40F0C981BB
S214003F80002AC6F8B801CCE900A3C6F8BC2108DCB4
S214003F903046D6F8C0319847216DD6F8B801D6F825
S214003FA0BC21013A00F1080307F10A0C002AC6F802
S214003FB0B8314160C0F800C0C6F8BC2107DCD6F8AE
S214003FC0C03130469847D6F8B831D6F8BC21606D77
S214003FD0013A03F1080C07F11001002AC6F8B8C12F
S214003FE0C3E90010C6F8BC2103DCD6F8C031304661
S214003FF0984745EA0905A37D25F4000501375907CA
S2140040007FF5E3AE637E1A077FF5DFAE626ED307F9
S21400401040F11D81052F3FF6D8AEB8F90000B4F97F
S21400402078C0B8F902E0B4F97A30A16EACEB000CB7
S214004030E06EA3EB0E0301FB0CFC00FB03C31B119D
S214004040100748BF0133D00648BFA3F580334FF0B2
S2140040500108500705F0807E08FA07F807D54FF4E8
S2140040600070A3F50043B840013B48EA000852063A
S21400407005D578084FF40032824048EA0208D6F8A0
S214004080B8C1D6F8BC215B420CF10800013A07F132
S2140040900409BEF1000F40F07581002AC6F8B80189
S2140040A0CCE90093C6F8BC2108DC3046D6F8C0310F
S2140040B09847A16ED6F8B801D6F8BC21013A00F1AF
S2140040C0080307F10A0C002AC6F8B8314160C0F8A8
S2140040D000C0C6F8BC2107DCD6F8C0313046984789
S2140040E0D6F8B831D6F8BC21E16E013A103703F1A4
S2140040F00800002AC6F8B801C3E90071C6F8BC215A
S21400410003DCD6F8C0313046984745EA080525F462
S21400411000055AE6606BC10740F19180052F3FF617
S21400412053AEB8F90020B4F94850A16BB4F94A3040
S214004130B8F902C0AD1AE26B01FB05F5A3EB0C0360
S21400414002FB0353089A1B1102F0807E020748BF49
S2140041500133C50648BFA3F580330125420705FA9B
S21400416007F506D54FF40072A3F50043BA40013BAD
S2140041701543400604D578084FF4003282401543B4
S214004180D6F8B8C1D6F8BC215B420CF10800013A5B
S21400419007F10409BEF1000F40F08F80002AC6F830
S2140041A0B801CCE90093C6F8BC2108DC3046D6F846
S2140041B0C0319847A16BD6F8B801D6F8BC21013AB1
S2140041C000F1080C07F10A03002AC6F8B8C1C0E9D6
S2140041D00031C6F8BC2107DCD6F8C0313046984717
S2140041E0D6F8B8C1D6F8BC21E16B013A0CF108004C
S2140041F007F11003002AC6F8B801CCE90031C6F86A
S214004200BC2103DCD6F8C03130469847636B089A69
S214004210590645EA020554BF25F4000525F4400575
S21400422001375EE6042F3FF6CFAD089B880723F4E0
S2140042300003089307F102077FF552AE6AE7042FE2
S2140042403FF6C2AD089B023723F4000549E6042F6B
S2140042503FF6BBAD25F40005B7E5042F3FF6B5AD38
S21400426025F400050237CAE6002BC6F8B801CCE9EB
S2140042700092C6F8BC3108DCD6F8C0313046984704
S214004280216AD6F8B801D6F8BC31013B00F1080C1B
S21400429007F10A02002BC6F8B8C1C0E90021C6F82B
S2140042A0BC3107DCD6F8C03130469847D6F8B8C1DE
S2140042B0D6F8BC31616A013BF2E59B01002AC6F8DC
S2140042C0B801CCE90093C6F8BC2108DC3046D6F825
S2140042D0C0319847A16BD6F8B801D6F8BC21013A90
S2140042E0890100F1080C07F10A03002AC6F8B8C1D4
S2140042F0C0E90031C6F8BC2107DCD6F8C03130462C
S2140043009847D6F8B8C1D6F8BC21E36B013A9901B4
S2140043106CE79B01002AC6F8B801CCE900A3C6F8F2
S214004320BC2108DC3046D6F8C0319847216DD6F857
S214004330B801D6F8BC21531E890100F1080C07F11C
S2140043400A02002BC6F8B8C1C0E90021C6F8BC3185
S21400435007DCD6F8C03130469847D6F8B8C1D6F84C
S214004360BC31626D013B91010CF1080007F11002AF
S214004370002BC6F8B801CCE90021C6F8BC317FF79F
S21400438034AE36E69B01002AC6F8B801CCE90093A5
S214004390C6F8BC2108DC3046D6F8C0319847A16E76
S2140043A0D6F8B801D6F8BC21013A890100F1080315
S2140043B007F10A0C002AC6F8B8314160C0F800C000
S2140043C0C6F8BC2107DCD6F8C03130469847D6F888
S2140043D0B831D6F8BC21E16E013A1037890103F1F5
S2140043E00800002AC6F8B801C3E90071C6F8BC2167
S2140043F07FF787AE89E600BF38B50446084605F065
S2140044000DFB0546B8B10122114605F05DFB4201E1
S21400441044BF012384F8C8318303C4F880000CD558
S214004420E36D31220121284605F042FB284605F0BF
S21400443031FCC4F88400284638BDA36E43F001035F
S214004440A366EDE708B505F01DFB012814BF0220A2
S214004450002008BD13460A46012105F029BB00BF0F
S21400446010B5044600220121204605F02DFBC307A7
S214004470F8D410BD38B5836E84690546D8070AD5CA
S21400448001210022204605F01FFB8107F8D138BD28
S214004490AB6E9A0707D500220121204605F014FBD3
S2140044A00307F5D4F3E7C8220421204605F08EFB67
S2140044B0F1E700BF836EDB0770B505460E6B0CD5C3
S2140044C0C2B94C6814B907E024682CB16168284664
S2140044D0FEF726FB0328F7D170BD3368002BFBD010
S2140044E090F9C921806952B932220121BDE8704095
S2140044F005F0DEBA3168BDE87040FEF711BB334602
S21400450032220121BDE8704005F0D2BA2DE9F04F05
S214004510A9B0BDF9C8E0BDF9CCC0BDF9D070359ED4
S214004520AEEB020BACEB03085BEA080400F060821B
S21400453007F10F0991F8D6A04FEA69040994BAF179
S214004540010F24B2079400F0688216F40054089411
S21400455040F05282089C10941FFA8EF4BBF1000FB4
S2140045600A9492B2BDF81C9040F3888204F10F05BD
S2140045704D44A2EB090425F00F0524F00F04ADF816
S2140045806450ADF860401FFA8CF4B8F1000F0B943D
S2140045909BB240F3648204F10F054D44A3EB09047B
S2140045A025F00F0524F00F04ADF86650ADF8624014
S2140045B00D4618A90C930692044604F0A1FC0028A8
S2140045C000F016820C9BBDF86200BDF86010069ADB
S2140045D01B1A9BB21593521A1BB20D932F2F13B2B0
S2140045E00C9304DCBAF1020F08BF4FF0010A06F084
S2140045F0010195F8D5300E9106F0030206F002018F
S214004600032A03F003030F9100F01A82032B00F035
S2140046101A851CAB184614931F2F17AB0293CDE9CF
S21400462000865B46DDE90C1200F3A582FFF71EF953
S2140046301C9B3A0303EB6203BAF1010F11921C9321
S21400464000F004832946204602F0E6FBD5F8283120
S2140046501293B8F1000F40F391824FEADB73069392
S214004660AB7D129ADFF8B4B902F4185213F0060FB5
S21400467042EA0B0B16D0089ACDF800B0BAF1020F3A
S21400468014BF02230523002A18BF052318AA2946AB
S2140046902046FFF789FB10F4000F069B08BF002397
S2140046A08346069395F8D420930734D595F80E31B3
S2140046B0BDF830102198A5F8901043F00803BDF817
S2140046C03410A5F892104FF0210C12F0080F85F860
S2140046D00E314FEA0010D5F8D010C5F87CC090FB1C
S2140046E0F1F0209B00F0C6825B421B01C5F88000FB
S2140046F093FBF1F3C5F88430D5F8CC0052074FEAA7
S2140047000033C5F8883006D5179B1B0193FBF1F1E3
S2140047100144C5F8CC10069B18AA2946204601F08D
S214004720FBFE069B18AA2946204603F0C7FCBAF1F2
S214004730020F00F02C820E9B002B00F06E820023EE
S21400474013934BF4806B0027B30500F169841F9B1D
S214004750B8F1000F03F50043C8BF01331F930F9B4A
S2140047607BB1002F00F090824BF4806B700500F157
S2140047703284229BB8F1000F03F50043D8BF013303
S214004780229316F4C05F15D0310505D51FAB93E80C
S2140047900700369B83E80700F20406D522AB93E8B1
S2140047A00700369B0C3383E8070018AB03CB379B18
S2140047B018605960069B002B40F03382DDF81880A5
S2140047C0089BA3B1109B03F58039B30506D5389B2B
S2140047D0D3E9002352EA030140F09D83730506D512
S2140047E0389BD3E9022352EA030140F03283D4F81F
S2140047F0B811D4F8BC311C9A013B01F1080004261C
S214004800002BC4F8B801C1E90062C4F8BC3107DC6B
S214004810D4F8C03120469847D4F8B801D4F8BC3153
S2140048201D99013B00F108020A26002BC4F8B821A6
S214004830C0E90061C4F8BC3107DCD4F8C0312046BA
S2140048409847D4F8B821D4F8BC311E99013B02F140
S21400485008061020002BC4F8B861C2E90001C4F8AD
S214004860BC3107DCD4F8C03120469847D4F8B8618C
S214004870D4F8BC311F9A013B06F10800002F00F067
S2140048800C810821002BC4F8B801C6E90012C4F850
S214004890BC3107DCD4F8C03120469847D4F8B801BC
S2140048A0D4F8BC312099013B00F108020E26002BFB
S2140048B0C4F8B821C0E90061C4F8BC3107DCD4F8FC
S2140048C0C03120469847D4F8B821D4F8BC31219995
S2140048D0013B02F108001426002BC4F8B801C2E917
S2140048E00061C4F8BC3107DCD4F8C03120469847D4
S2140048F0D4F8B801D4F8BC31229A013B00F1080183
S2140049000526002BC4F8B811C0E90062C4F8BC3113
S21400491007DCD4F8C03120469847D4F8B811D4F84C
S214004920BC31239A013B01F108000B26002BC4F88A
S214004930B801C1E90062C4F8BC3107DCD4F8C03164
S21400494020469847D4F8B801D4F8BC312499013BE6
S21400495000F108021126002BC4F8B821C0E9006156
S214004960C4F8BC3107DCD4F8C03120469847D4F8E8
S214004970B821D4F8BC31119E013B02F10801162083
S214004980002BC4F8B811C2E90006C4F8BC3107DC35
S214004990D4F8C03120469847D4F8B811D4F8BC31C2
S2140049A0013B002201F108009342C4F8B801C1E9B6
S2140049B0002BC4F8BC3103DCD4F8C031204698473D
S2140049C0099A079B134403F10F09069B4FEA29191E
S2140049D018A94A462046002B00F0CA8002F076FD51
S2140049E0BAF1020F00F05481012029B0BDE8F08F23
S2140049F0002029B0BDE8F08F91F8D740042C4FEA8C
S214004A00670523D0B1F9D840254405EB850949F35D
S214004A108F0407942C0310949EE506F00304032CE1
S214004A203FF493AD099C04EB4409C4EBC90949F370
S214004A300F14079416F4005408943FF48BADDBE78C
S214004A40032B00F03B834FF0000AE2E5079C04EBE3
S214004A50840949F38F0407942C0310947CE50B9C7F
S214004A6003F10F054D44A4EB090425F00F0524F0CF
S214004A700F04ADF86650ADF8624099E50A9C02F165
S214004A800F054D44A4EB090425F00F0524F00F0490
S214004A90ADF86450ADF8604075E50521002BC4F80C
S214004AA0B801C6E90012C4F8BC3107DCD4F8C0313E
S214004AB020469847D4F8B801D4F8BC31209A013B78
S214004AC000F108010B26002BC4F8B811C0E90062FB
S214004AD0C4F8BC3107DCD4F8C03120469847D4F877
S214004AE0B811D4F8BC31219A013B01F10800112617
S214004AF0002BC4F8B801C1E90062C4F8BC3107DC79
S214004B00D4F8C03120469847D4F8B801D4F8BC3160
S214004B10229A013B00F108010826002BC4F8B811C0
S214004B20C0E90062C4F8BC3107DCD4F8C0312046C6
S214004B309847D4F8B811D4F8BC31239A013B01F158
S214004B4008000E26002BC4F8B801C1E90062C4F8BC
S214004B50BC3107DCD4F8C03120469847D4F8B801F9
S214004B60D4F8BC312499013B00F108021426F2E681
S214004B7002F01AFC34E7FEF72BFE59E500F09A82A5
S214004B80BBF1000FD4BF00230123069368E507F1AD
S214004B901002521013B213930E9B002B40F041816B
S214004BA0069B002B00F08482BDF86230BDF86600DC
S214004BB0C01A159BC01A00B20F9B002B40F07582DE
S214004BC04BF4005B0C9952008B18002B40F32283A9
S214004BD00C9B002700EB020CBCF1000F12DDBDF9A8
S214004BE064C0BDF960E0891AACEB0E0C614509DAC9
S214004BF0BDF96610BDF962C0821AA1EB0C018A42AB
S214004C00C0F2F2820E9B002B3FF4A9AD002F3FF4BA
S214004C1098AD4BF4005B012796E50F9F97BB139763
S214004C20AFE5BDF96230BDF966801498A8EB0308BD
S214004C304FEA28184146FFF7A3F841461FA8FFF79A
S214004C409FF8414622A8FFF79BF8B9E50E9B2BB9C3
S214004C501F9BA2F5803203EB62031F930F9B002B72
S214004C607FF4F0AC119A229BA2F5803203EB62032C
S214004C702293E7E41B01C5F8840093FBF1F3C5F823
S214004C80803039E50E9B13934BF4005B00276DE5EF
S214004C900A990B9EBDF84C3001F10F003246C91A36
S214004CA018440F321A4421F00F0120F00F00F31AB7
S214004CB023F00F0322F00F02ADF86810ADF86C0079
S214004CC01AA92046ADF86A30ADF86E2004F018F93F
S214004CD000283FF489AE139ABDF86AC001920B9A79
S214004CE00A99BDF86830CC4EA2EB0C0C00270FFAE0
S214004CF08CF2CB1A00921BB23A4629462046CDE9E2
S214004D0003770297FDF7EAFA129B1AAA03F4007CCF
S214004D1029463B4620464CEA060601F0FDFB3B468C
S214004D201AAA2946204603F0C9F9AB7D13F0060FF0
S214004D3040F04782BDF96230BDF96A20BDF96000D7
S214004D40BDF96810D21A069B091A09111211249887
S214004D501BB140422490A2EB0802DDE922355B42FB
S214004D6001FB1531D4F8BC31D4F8B87100FB12122F
S214004D70013B02F1011207F108000621002BC4F8DE
S214004D80B801C7E90012C4F8BC3108DCD4F8C03159
S214004D9020469847239DD4F8B801D4F8BC31013B8F
S214004DA06A4200F108010C25002BC4F8B811C0E9CE
S214004DB00052C4F8BC3107DCD4F8C031204698470E
S214004DC0D4F8B811D4F8BC31249A013B50421225CD
S214004DD001F10802002BC4F8B821C1E90050C4F85C
S214004DE0BC3107DCD4F8C03120469847D4F8B82147
S214004DF0D4F8BC31013B002102F108008B42C4F814
S214004E00B801C2E90016C4F8BC3103DCD4F8C031DE
S214004E102046984749F30B121AA9204602F0C4FA16
S214004E20E2E50A99BDF86030CB1A06991BB2002954
S214004E3000F03581BDF866000B99401A00B25200AA
S214004E409F18002F19464FF0000A7FF7E2AE0127A1
S214004E50C0E6BDF8620000920B9ABDF86010121A08
S214004E600A98411A129800F4805C00205B424CF0CD
S214004E70080C019012B209B225A84BEA0C0BFEF7FB
S214004E804FFF069B002B40F0A581D4F8B801D4F85C
S214004E90BC31259A360400F1080103F1FF3340F1D6
S214004EA063814A440726002BC4F8B811C0E90062A3
S214004EB0C4F8BC3107DCD4F8C03120469847D4F893
S214004EC0B811D4F8BC312698013B01F108020D2632
S214004ED0002BC4F8B821C1E90060C4F8BC3107DC77
S214004EE0D4F8C03120469847D4F8B821D4F8BC315D
S214004EF02798013B02F108011326002BC4F8B811CD
S214004F00C2E90060C4F8BC313FF775ACD4F8C031D4
S214004F10204698476BE41299009201F400604FF027
S214004F20000C40F0040E5B42DDE90C12CDF804C024
S214004F3025A84BEA0E0BFEF7F3FE069B002B40F06F
S214004F404E81D4F8B801D4F8BC31259A16F4804FB7
S214004F5000F1080103F1FF3340F0CA804A444FF0E5
S214004F60060C002BC4F8B811C0E900C2C4F8BC3166
S214004F7007DCD4F8C03120469847D4F8B811D4F8E6
S214004F80BC31269A013B01F108004FF00C0C002BB7
S214004F90C4F8B801C1E900C2C4F8BC3107DCD4F8D3
S214004FA0C03120469847D4F8B801D4F8BC31279AC7
S214004FB0013B00F10801C4F8B811002B4FF01201B4
S214004FC0C0E90012C4F8BC313FF708ACD4F8C031D1
S214004FD02046984702E4389BBDF86220D8680E90B9
S214004FE00B98BDF860109B68821A0A98411A0E98B2
S214004FF04FF0010C404200905B4212B209B2CDF86D
S21400500004C022A8FEF772FE079B4FEA43090FFA78
S21400501089F30793FFF7B5BB450840001380C0002F
S214005020389A389B52681B680092002201921FA88B
S214005030DDE90C124FEA4909FEF758FE0FFA89F32C
S2140050400793FFF78CBB1CAB1846149317ABDDE930
S2140050500C120393CDE901655B46CDF80080FEF7A0
S21400506063FBD5F810311C9907FB03F2501101447D
S214005070BAF1010F4FEA22121C9109D10E9911B90B
S2140050801F9901441F910F9911B922990144229149
S2140050905B08A3F5803313441193FFF7D3BABDF82A
S2140050A062000B99081A00B2C9E64FF0000A89E5BB
S2140050B00D9881E5CDF81880FFF7D2BA1CAB1846DC
S2140050C0149317ABDDE90C120393CDE901655B463B
S2140050D0CDF80080FEF728FBD5F810311C9907FBA9
S2140050E003F201EB62111C9112114FF0000ACFE798
S2140050F0A9EB02024FF0060C002BC4F8B811C0E969
S21400510000C2C4F8BC3107DCD4F8C031204698474A
S214005110D4F8B811D4F8BC31269A013B50424FF06F
S2140051200C0C01F10802002BC4F8B821C1E900C03C
S214005130C4F8BC3107DCD4F8C03120469847D4F810
S214005140B821D4F8BC312799013B494202F1080C3A
S2140051501220002BC4F8B8C1C2E90001C4F8BC3163
S2140051607FF734AFFFF73ABBA9EB02020726002B06
S214005170C4F8B811C0E90062C4F8BC3107DCD4F842
S214005180C03120469847D4F8B811D4F8BC31269AD6
S214005190013B50420D2601F10802002BC4F8B8214D
S2140051A0C1E90060C4F8BC3107DCD4F8C031204641
S2140051B09847D4F8B821D4F8BC312799013B484227
S2140051C098E60096294603231AAA2046FEF7ECFD29
S2140051D00646AFE525A84146FEF7D2FD55E625A8CA
S2140051E04146FEF7CDFDACE613990022CDE900015D
S2140051F0CDE903220292294602222046FDF76EF8E8
S214005200129B03F4006343F4801343F084034BEAD9
S214005210030BF7E40F9F002F7FF436ADFFF7B1BA0C
S2140052202DE9F04788B01FFA83F9BDF940501035D4
S21400523097B26D10ACB207F10F0309F10F063A1BD7
S21400524023442644A9EB040424F00F04884622F0E5
S2140052500F0223F00F0326F00F0606A9ADF81A403A
S214005260ADF81820ADF81C30ADF81E60044603F00B
S21400527047FE10B908B0BDE8F087D8F82861BDF839
S2140052801A10BDF818300195A9EB010906F400764E
S21400529000220FFA89F1FB1A46F4800600911BB231
S2140052A0CDE9032202924146204646F04106FDF72C
S2140052B015F80223009606AA41462046FEF774FD1E
S2140052C0119B0F3507462D09002B00F0C680139B57
S2140052D0BDF91820B3F90090B3F90260BDF91A3091
S2140052E0F61A119BA9EB0209DA074FEA29194FEAC9
S2140052F0261640F1E480129BD4F8B8C19A68D3E928
S2140053000010C1F58031D4F8BC3109FB001102FB56
S21400531006120132013B0CF1080EC4F8B8E1002B6E
S214005320CCF804204FF00602CCF80020C4F8BC31BC
S21400533009DCD4F8C03120469847129BD4F8B8E16F
S2140053405868D4F8BC31013B40420EF108010C22EB
S214005350002BC4F8B811CEE90020C4F8BC3107DC35
S214005360D4F8C03120469847D4F8B811D4F8BC31E8
S214005370129A9268013B524201F1080C1220002B4F
S214005380C4F8B8C1C1E90002C4F8BC3103DCD4F8E3
S214005390C0312046984747F4006747F004074FF0AF
S2140053A0030A119B9B075AD5129BD4F8B801D3E980
S2140053B00321C2F580325B6909FB0129D4F8BC21C0
S2140053C003FB0696013A013600F1080C0723002A73
S2140053D0C4F8B8C146600360C4F8BC2109DCD4F840
S2140053E0C03120469847129BD4F8B8C11969D4F842
S2140053F0BC21013A49420CF108030D20002AC4F8EA
S214005400B831CCE90001C4F8BC2107DCD4F8C031BF
S21400541020469847D4F8B831D4F8BC211299496987
S214005420013A494203F108061320002AC4F8B8617D
S214005430C3E90001C4F8BC2103DCD4F8C03120461F
S2140054409847BAF1030F47F4805747F008070CBF98
S2140054504FF0040A4FF0020A01E04FF0020A5346EA
S21400546006AA414600972046FEF79EFCD4F8BC31BB
S214005470D4F8B821013B002102F108068B42C4F89B
S214005480B861C2E90010C4F8BC3103DCD4F8C031FE
S2140054902046984706AA41462046002301F03CF8DD
S2140054A04146002306AA204602F008FE20462A4669
S2140054B006A901F079FF012008B0BDE8F0874FF09B
S2140054C0020A6EE72DE9F04FABB0BDF9D090BDF9FA
S2140054D0D470BDF9D8400794A9EB0206BDF9DC40AC
S2140054E00694FD1A56EA0504CDE9109704D1002566
S2140054F028462BB0BDE8F08F044605FB05F006FBFA
S21400550006008A4691F8D6100F939046139208919B
S21400551000F00CFF6D424FF0807393FBF0F207989B
S214005520159202FB05F52D1205FB00F102FB06F6AF
S214005530069A12954FEA614E05FB02F33612A8EB67
S2140055400E0506FB00F00C950F9D0699169140146B
S2140055505B1408EB0E0B05EB00082D1A06FB02F297
S2140055600A9509EB030552140D950899A9EB030556
S2140055700B95BD180E950229A7EB0205099500F0BC
S214005580D182389901F0030CBCF1030F00F0C782FA
S2140055900899012900F096820D9B5B45A8BF5B46E3
S2140055A01A46DDE90B318B42A8BF0B469A42A4BFD0
S2140055B023F00F031AB20D9BBCBF22F00F0212B2EB
S2140055C05B45B8BF5B461946DDE90B308342B8BF82
S2140055D00346ADF868200E9A9942CCBF01F10F033E
S2140055E00F334245A8BF42461146DDE9092023F0A5
S2140055F00F0382421BB2A8BF0246ADF86C300E9B6A
S2140056009142B4BF21F00F0222F00F024345B8BF0B
S21400561043461946DDE909308342B8BF034699423E
S214005620CCBF01F10F030F3323F00F0312B21BB2EE
S2140056301AA92046ADF86A20ADF86E3003F060FC7B
S21400564000283FF454AF9AF8D550BDF86810BDF85E
S2140056506A2017950F9D13981F96A5EB020EA9EBCF
S21400566001030FFA8EF51BB2A0EB010E06FB03FC3E
S2140056700FFA8EF3129814931893BB1A1BB200FB02
S21400568013C3199500FB05FC149D1B1106FB15CCD6
S21400569003F5004E179D129B239305F003005D4211
S2140056A00D9BCDF884E0ABEB0101ABEB030B0E9B3F
S2140056B02095A8EB0202A8EB03030D9313B21293F6
S2140056C00B9B0A9A9E464FEA2C1C099B0CF5803CC5
S2140056D09B1ACDF878C0DDF830C00E93764224AB26
S2140056E00328229609B21FFA8CF596B2AEEB0C0888
S2140056F0149300F0B8820D9A009218460023129A6E
S21400570001935B46FEF7DEF9BDF86A20BDF8681027
S21400571000230193B21A0E9B0093691A27A84346EA
S21400572012B209B21290FEF7CDF9249A279B02F521
S214005730004203F5004324922793389B03F00105AB
S214005740089B012B00F074825146204601F064FB52
S214005750089BDAF82861022B07D1002D00F0CD82D5
S214005760389B9A0758BF46F480669AF8D420930769
S21400577032D59AF80E31BDF860102098AAF890102D
S21400578043F00803BDF86410AAF892104FF0210CFD
S21400579012F0080F8AF80E314FEA0010DAF8D0102F
S2140057A0CAF87CC090FBF1F01F9B40F098821B016A
S2140057B0CAF8840093FBF1F3CAF88030DAF8CC001C
S2140057C00303CAF88830530706D5159B1B0193FBC5
S2140057D0F1F10144CAF8CC10DDE909239B1A002B2D
S2140057E040F3D781DDE90B23A3EB020BBBF1000FDF
S2140057F0C0F2D98100231AAA5146204600F08CFE3A
S21400580000231AAA5146204602F058FC0F9BBDF909
S2140058106AB09F424FF000030993AABF0F9BA7EB05
S2140058200B0BA3EB0B0BDDE906129AF816308A4237
S21400583006F4F058B8BF0A4648F4400813F0060FBE
S21400584048F00F080BEB221B40F05981002D00F0AA
S2140058507981069BCDE90B975B100A9301230025FF
S2140058600693099B002B40F01982DDF82490D4F8AB
S214005870BC31D4F8B821013B002102F108078B4265
S214005880C4F8B871C2F804801160C4F8BC3107DCF3
S214005890D4F8C03120469847D4F8B871D4F8BC3153
S2140058A09AF8D52002F00302032A00F09381DDF86F
S2140058B078C0013B07F108020421002BC4F8B82188
S2140058C0C7E9001CC4F8BC3107DCD4F8C031204658
S2140058D09847D4F8B821D4F8BC311F99013B02F19F
S2140058E008000A26002BC4F8B801C2E90061C4F813
S2140058F0BC3107DCD4F8C03120469847D4F8B8014C
S214005900D4F8BC31209A013B00F108011026002B88
S214005910C4F8B811C0E90062C4F8BC3107DCD4F89A
S214005920C03120469847D4F8B811D4F8BC31219A33
S214005930013B01F108000526002BC4F8B801C1E9B7
S2140059400062C4F8BC3107DCD4F8C0312046984762
S214005950D4F8B801D4F8BC31229A013B00F1080112
S2140059600B26002BC4F8B811C0E90062C4F8BC319D
S21400597007DCD4F8C03120469847D4F8B811D4F8DC
S214005980BC31239A013B01F108001126002BC4F814
S214005990B801C1E90062C4F8BC3107DCD4F8C031F4
S2140059A020469847D4F8B801D4F8BC31249A013B75
S2140059B000F108010626002BC4F8B811C0E9006201
S2140059C0C4F8BC3107DCD4F8C03120469847D4F878
S2140059D0B811D4F8BC31259A013B01F108000C2619
S2140059E0002BC4F8B801C1E90062C4F8BC3107DC7A
S2140059F0D4F8C03120469847D4F8B801D4F8BC3162
S214005A00269A013B00F108011226002BC4F8B811B3
S214005A10C0E90062C4F8BC3107DCD4F8C0312046C7
S214005A209847D4F8B811D4F8BC31279A013B01F155
S214005A3008000726002BC4F8B801C1E90062C4F8C4
S214005A40BC3107DCD4F8C03120469847D4F8B801FA
S214005A50D4F8BC31289A013B00F108010D26002B32
S214005A60C4F8B811C0E90062C4F8BC3107DCD4F849
S214005A70C03120469847D4F8B811D4F8BC31299ADA
S214005A80013B01F10800C4F8B801002B4FF01300E9
S214005A90C1E90002C4F8BC3103DCD4F8C0312046AA
S214005AA09847099B5A461AA92046002B6ED001F04B
S214005AB00DFD089B022B00F02381012528462BB004
S214005AC0BDE8F08F3899CD0708D40C99091A0C91C7
S214005AD00A997144ABEB000BF0440A913899880799
S214005AE03FF55AAD0D9911440D91B918C91A0E918A
S214005AF00B991144099A0B91D31A09934CE5CDF8EA
S214005B00008004231AAA51462046FEF74DF910F4E9
S214005B10000F099B08BF00238046099396E60023E2
S214005B20089339E507992F2903DC389941F00101DC
S214005B30389106992F293FF724AD389941F0020194
S214005B4038911EE5389B13F0020340F0BF80079A99
S214005B500698824240F36682069353100A930F9B80
S214005B600C93139B0B9301256B001D442AAB03EB90
S214005B708505303D95E80700399D1AAB85E8070096
S214005B8003CB3A9B0125186059606AE601F00CFCCD
S214005B908FE70D9B002B3FF729AE3FF42BAEBBF1F2
S214005BA0000F7FF727AE01231AAA5146204600F0C1
S214005BB0B3FC01231AAA5146204602F07FFA0F9B37
S214005BC0BDF96EB09F4280F2938001220992ABEB42
S214005BD0030B28E6089A022A3FF469AEB105DDF801
S214005BE078C010D4DDE91F12BAF914004FEA0C1C75
